{
  "_format": "hh-sol-artifact-1",
  "contractName": "NFTMarketplace",
  "sourceName": "contracts/NFTMarketplace.sol",
  "abi": [
    {
      "inputs": [],
      "stateMutability": "nonpayable",
      "type": "constructor"
    },
    {
      "anonymous": false,
      "inputs": [
        {
          "indexed": true,
          "internalType": "address",
          "name": "owner",
          "type": "address"
        },
        {
          "indexed": true,
          "internalType": "address",
          "name": "approved",
          "type": "address"
        },
        {
          "indexed": true,
          "internalType": "uint256",
          "name": "tokenId",
          "type": "uint256"
        }
      ],
      "name": "Approval",
      "type": "event"
    },
    {
      "anonymous": false,
      "inputs": [
        {
          "indexed": true,
          "internalType": "address",
          "name": "owner",
          "type": "address"
        },
        {
          "indexed": true,
          "internalType": "address",
          "name": "operator",
          "type": "address"
        },
        {
          "indexed": false,
          "internalType": "bool",
          "name": "approved",
          "type": "bool"
        }
      ],
      "name": "ApprovalForAll",
      "type": "event"
    },
    {
      "anonymous": false,
      "inputs": [
        {
          "indexed": true,
          "internalType": "uint256",
          "name": "tokenId",
          "type": "uint256"
        },
        {
          "indexed": false,
          "internalType": "address",
          "name": "owner",
          "type": "address"
        },
        {
          "indexed": false,
          "internalType": "address",
          "name": "seller",
          "type": "address"
        },
        {
          "indexed": false,
          "internalType": "bool",
          "name": "currentlyListed",
          "type": "bool"
        }
      ],
      "name": "TokenListedSuccess",
      "type": "event"
    },
    {
      "anonymous": false,
      "inputs": [
        {
          "indexed": true,
          "internalType": "address",
          "name": "from",
          "type": "address"
        },
        {
          "indexed": true,
          "internalType": "address",
          "name": "to",
          "type": "address"
        },
        {
          "indexed": true,
          "internalType": "uint256",
          "name": "tokenId",
          "type": "uint256"
        }
      ],
      "name": "Transfer",
      "type": "event"
    },
    {
      "inputs": [
        {
          "internalType": "address",
          "name": "to",
          "type": "address"
        },
        {
          "internalType": "uint256",
          "name": "tokenId",
          "type": "uint256"
        }
      ],
      "name": "approve",
      "outputs": [],
      "stateMutability": "nonpayable",
      "type": "function"
    },
    {
      "inputs": [
        {
          "internalType": "address",
          "name": "owner",
          "type": "address"
        }
      ],
      "name": "balanceOf",
      "outputs": [
        {
          "internalType": "uint256",
          "name": "",
          "type": "uint256"
        }
      ],
      "stateMutability": "view",
      "type": "function"
    },
    {
      "inputs": [
        {
          "internalType": "address",
          "name": "to",
          "type": "address"
        },
        {
          "internalType": "string",
          "name": "tokenURI",
          "type": "string"
        }
      ],
      "name": "createToken",
      "outputs": [
        {
          "internalType": "uint256",
          "name": "",
          "type": "uint256"
        }
      ],
      "stateMutability": "payable",
      "type": "function"
    },
    {
      "inputs": [],
      "name": "getAllNFTs",
      "outputs": [
        {
          "components": [
            {
              "internalType": "uint256",
              "name": "tokenId",
              "type": "uint256"
            },
            {
              "internalType": "address payable",
              "name": "owner",
              "type": "address"
            },
            {
              "internalType": "address payable",
              "name": "seller",
              "type": "address"
            },
            {
              "internalType": "bool",
              "name": "currentlyListed",
              "type": "bool"
            }
          ],
          "internalType": "struct NFTMarketplace.ListedToken[]",
          "name": "",
          "type": "tuple[]"
        }
      ],
      "stateMutability": "view",
      "type": "function"
    },
    {
      "inputs": [
        {
          "internalType": "uint256",
          "name": "tokenId",
          "type": "uint256"
        }
      ],
      "name": "getApproved",
      "outputs": [
        {
          "internalType": "address",
          "name": "",
          "type": "address"
        }
      ],
      "stateMutability": "view",
      "type": "function"
    },
    {
      "inputs": [],
      "name": "getCurrentToken",
      "outputs": [
        {
          "internalType": "uint256",
          "name": "",
          "type": "uint256"
        }
      ],
      "stateMutability": "view",
      "type": "function"
    },
    {
      "inputs": [],
      "name": "getLatestIdToListedToken",
      "outputs": [
        {
          "components": [
            {
              "internalType": "uint256",
              "name": "tokenId",
              "type": "uint256"
            },
            {
              "internalType": "address payable",
              "name": "owner",
              "type": "address"
            },
            {
              "internalType": "address payable",
              "name": "seller",
              "type": "address"
            },
            {
              "internalType": "bool",
              "name": "currentlyListed",
              "type": "bool"
            }
          ],
          "internalType": "struct NFTMarketplace.ListedToken",
          "name": "",
          "type": "tuple"
        }
      ],
      "stateMutability": "view",
      "type": "function"
    },
    {
      "inputs": [
        {
          "internalType": "uint256",
          "name": "tokenId",
          "type": "uint256"
        }
      ],
      "name": "getListedTokenForId",
      "outputs": [
        {
          "components": [
            {
              "internalType": "uint256",
              "name": "tokenId",
              "type": "uint256"
            },
            {
              "internalType": "address payable",
              "name": "owner",
              "type": "address"
            },
            {
              "internalType": "address payable",
              "name": "seller",
              "type": "address"
            },
            {
              "internalType": "bool",
              "name": "currentlyListed",
              "type": "bool"
            }
          ],
          "internalType": "struct NFTMarketplace.ListedToken",
          "name": "",
          "type": "tuple"
        }
      ],
      "stateMutability": "view",
      "type": "function"
    },
    {
      "inputs": [],
      "name": "getMyNFTs",
      "outputs": [
        {
          "components": [
            {
              "internalType": "uint256",
              "name": "tokenId",
              "type": "uint256"
            },
            {
              "internalType": "address payable",
              "name": "owner",
              "type": "address"
            },
            {
              "internalType": "address payable",
              "name": "seller",
              "type": "address"
            },
            {
              "internalType": "bool",
              "name": "currentlyListed",
              "type": "bool"
            }
          ],
          "internalType": "struct NFTMarketplace.ListedToken[]",
          "name": "",
          "type": "tuple[]"
        }
      ],
      "stateMutability": "view",
      "type": "function"
    },
    {
      "inputs": [
        {
          "internalType": "address",
          "name": "owner",
          "type": "address"
        },
        {
          "internalType": "address",
          "name": "operator",
          "type": "address"
        }
      ],
      "name": "isApprovedForAll",
      "outputs": [
        {
          "internalType": "bool",
          "name": "",
          "type": "bool"
        }
      ],
      "stateMutability": "view",
      "type": "function"
    },
    {
      "inputs": [],
      "name": "name",
      "outputs": [
        {
          "internalType": "string",
          "name": "",
          "type": "string"
        }
      ],
      "stateMutability": "view",
      "type": "function"
    },
    {
      "inputs": [
        {
          "internalType": "uint256",
          "name": "tokenId",
          "type": "uint256"
        }
      ],
      "name": "ownerOf",
      "outputs": [
        {
          "internalType": "address",
          "name": "",
          "type": "address"
        }
      ],
      "stateMutability": "view",
      "type": "function"
    },
    {
      "inputs": [
        {
          "internalType": "address",
          "name": "from",
          "type": "address"
        },
        {
          "internalType": "address",
          "name": "to",
          "type": "address"
        },
        {
          "internalType": "uint256",
          "name": "tokenId",
          "type": "uint256"
        }
      ],
      "name": "safeTransferFrom",
      "outputs": [],
      "stateMutability": "nonpayable",
      "type": "function"
    },
    {
      "inputs": [
        {
          "internalType": "address",
          "name": "from",
          "type": "address"
        },
        {
          "internalType": "address",
          "name": "to",
          "type": "address"
        },
        {
          "internalType": "uint256",
          "name": "tokenId",
          "type": "uint256"
        },
        {
          "internalType": "bytes",
          "name": "data",
          "type": "bytes"
        }
      ],
      "name": "safeTransferFrom",
      "outputs": [],
      "stateMutability": "nonpayable",
      "type": "function"
    },
    {
      "inputs": [
        {
          "internalType": "address",
          "name": "operator",
          "type": "address"
        },
        {
          "internalType": "bool",
          "name": "approved",
          "type": "bool"
        }
      ],
      "name": "setApprovalForAll",
      "outputs": [],
      "stateMutability": "nonpayable",
      "type": "function"
    },
    {
      "inputs": [
        {
          "internalType": "bytes4",
          "name": "interfaceId",
          "type": "bytes4"
        }
      ],
      "name": "supportsInterface",
      "outputs": [
        {
          "internalType": "bool",
          "name": "",
          "type": "bool"
        }
      ],
      "stateMutability": "view",
      "type": "function"
    },
    {
      "inputs": [],
      "name": "symbol",
      "outputs": [
        {
          "internalType": "string",
          "name": "",
          "type": "string"
        }
      ],
      "stateMutability": "view",
      "type": "function"
    },
    {
      "inputs": [
        {
          "internalType": "uint256",
          "name": "tokenId",
          "type": "uint256"
        }
      ],
      "name": "tokenURI",
      "outputs": [
        {
          "internalType": "string",
          "name": "",
          "type": "string"
        }
      ],
      "stateMutability": "view",
      "type": "function"
    },
    {
      "inputs": [
        {
          "internalType": "address",
          "name": "from",
          "type": "address"
        },
        {
          "internalType": "address",
          "name": "to",
          "type": "address"
        },
        {
          "internalType": "uint256",
          "name": "tokenId",
          "type": "uint256"
        }
      ],
      "name": "transferFrom",
      "outputs": [],
      "stateMutability": "nonpayable",
      "type": "function"
    }
  ],
  "bytecode": "0x60806040523480156200001157600080fd5b50604080518082018252600e81526d4e46544d61726b6574706c61636560901b6020808301918252835180850190945260068452654e46544d544b60d01b908401528151919291620000669160009162000097565b5080516200007c90600190602084019062000097565b5050600980546001600160a01b03191633179055506200017a565b828054620000a5906200013d565b90600052602060002090601f016020900481019282620000c9576000855562000114565b82601f10620000e457805160ff191683800117855562000114565b8280016001018555821562000114579182015b8281111562000114578251825591602001919060010190620000f7565b506200012292915062000126565b5090565b5b8082111562000122576000815560010162000127565b600181811c908216806200015257607f821691505b602082108114156200017457634e487b7160e01b600052602260045260246000fd5b50919050565b611e68806200018a6000396000f3fe6080604052600436106101145760003560e01c806370a08231116100a0578063c87b56dd11610064578063c87b56dd14610388578063d1a88ae5146103a8578063e0391b09146103bd578063e985e9c5146103d2578063ef2d17461461041b57600080fd5b806370a082311461026d5780638e2645901461028d57806395d89b4114610333578063a22cb46514610348578063b88d4fde1461036857600080fd5b8063095ea7b3116100e7578063095ea7b3146101c957806323b872dd146101eb57806342842e0e1461020b578063629cb2e41461022b5780636352211e1461024d57600080fd5b8063013828071461011957806301ffc9a71461013f57806306fdde031461016f578063081812fc14610191575b600080fd5b61012c610127366004611a32565b610430565b6040519081526020015b60405180910390f35b34801561014b57600080fd5b5061015f61015a366004611aba565b6104d4565b6040519015158152602001610136565b34801561017b57600080fd5b50610184610524565b6040516101369190611c21565b34801561019d57600080fd5b506101b16101ac366004611af2565b6105b6565b6040516001600160a01b039091168152602001610136565b3480156101d557600080fd5b506101e96101e4366004611a91565b6105dd565b005b3480156101f757600080fd5b506101e9610206366004611944565b6106f3565b34801561021757600080fd5b506101e9610226366004611944565b610724565b34801561023757600080fd5b5061024061073f565b6040516101369190611ba2565b34801561025957600080fd5b506101b1610268366004611af2565b610995565b34801561027957600080fd5b5061012c6102883660046118f8565b6109f5565b34801561029957600080fd5b506103266102a8366004611af2565b604080516080810182526000808252602082018190529181018290526060810191909152506000908152600a602090815260409182902082516080810184528154815260018201546001600160a01b039081169382019390935260029091015491821692810192909252600160a01b900460ff161515606082015290565b6040516101369190611d18565b34801561033f57600080fd5b50610184610a7b565b34801561035457600080fd5b506101e96103633660046119f8565b610a8a565b34801561037457600080fd5b506101e961038336600461197f565b610a99565b34801561039457600080fd5b506101846103a3366004611af2565b610ad1565b3480156103b457600080fd5b50610326610be2565b3480156103c957600080fd5b50610240610c6d565b3480156103de57600080fd5b5061015f6103ed366004611912565b6001600160a01b03918216600090815260056020908152604080832093909416825291909152205460ff1690565b34801561042757600080fd5b5061012c610dc5565b6009546000906001600160a01b031633146104925760405162461bcd60e51b815260206004820181905260248201527f4f6e6c79206f776e65722063616e206d696e742077617272616e7479204e465460448201526064015b60405180910390fd5b6104a0600780546001019055565b60006104ab60075490565b90506104b78482610dd5565b6104c18184610def565b6104cb8185610e89565b90505b92915050565b60006001600160e01b031982166380ac58cd60e01b148061050557506001600160e01b03198216635b5e139f60e01b145b806104ce57506301ffc9a760e01b6001600160e01b03198316146104ce565b60606000805461053390611d9a565b80601f016020809104026020016040519081016040528092919081815260200182805461055f90611d9a565b80156105ac5780601f10610581576101008083540402835291602001916105ac565b820191906000526020600020905b81548152906001019060200180831161058f57829003601f168201915b5050505050905090565b60006105c182610f57565b506000908152600460205260409020546001600160a01b031690565b60006105e882610995565b9050806001600160a01b0316836001600160a01b031614156106565760405162461bcd60e51b815260206004820152602160248201527f4552433732313a20617070726f76616c20746f2063757272656e74206f776e656044820152603960f91b6064820152608401610489565b336001600160a01b0382161480610672575061067281336103ed565b6106e45760405162461bcd60e51b815260206004820152603d60248201527f4552433732313a20617070726f76652063616c6c6572206973206e6f7420746f60448201527f6b656e206f776e6572206f7220617070726f76656420666f7220616c6c0000006064820152608401610489565b6106ee8383610fb9565b505050565b6106fd3382611027565b6107195760405162461bcd60e51b815260040161048990611c34565b6106ee8383836110a5565b6106ee83838360405180602001604052806000815250610a99565b6060600061074c60075490565b905060008060005b838110156107e45733600a600061076c846001611d56565b81526020810191909152604001600020600101546001600160a01b031614806107bf575033600a60006107a0846001611d56565b81526020810191909152604001600020600201546001600160a01b0316145b156107d2576107cf600184611d56565b92505b806107dc81611dd5565b915050610754565b5060008267ffffffffffffffff81111561080e57634e487b7160e01b600052604160045260246000fd5b60405190808252806020026020018201604052801561086057816020015b60408051608081018252600080825260208083018290529282018190526060820152825260001990920191018161082c5790505b50905060005b8481101561098c5733600a600061087e846001611d56565b81526020810191909152604001600020600101546001600160a01b031614806108d1575033600a60006108b2846001611d56565b81526020810191909152604001600020600201546001600160a01b0316145b1561097a5760006108e3826001611d56565b6000818152600a602090815260409182902082516080810184528154815260018201546001600160a01b0390811693820193909352600282015492831693810193909352600160a01b90910460ff161515606083015285519293509185908790811061095f57634e487b7160e01b600052603260045260246000fd5b6020908102919091010152610975600186611d56565b945050505b8061098481611dd5565b915050610866565b50949350505050565b6000818152600260205260408120546001600160a01b0316806104ce5760405162461bcd60e51b8152602060048201526018602482015277115490cdcc8c4e881a5b9d985b1a59081d1bdad95b88125160421b6044820152606401610489565b60006001600160a01b038216610a5f5760405162461bcd60e51b815260206004820152602960248201527f4552433732313a2061646472657373207a65726f206973206e6f7420612076616044820152683634b21037bbb732b960b91b6064820152608401610489565b506001600160a01b031660009081526003602052604090205490565b60606001805461053390611d9a565b610a95338383611209565b5050565b610aa33383611027565b610abf5760405162461bcd60e51b815260040161048990611c34565b610acb848484846112d8565b50505050565b6060610adc82610f57565b60008281526006602052604081208054610af590611d9a565b80601f0160208091040260200160405190810160405280929190818152602001828054610b2190611d9a565b8015610b6e5780601f10610b4357610100808354040283529160200191610b6e565b820191906000526020600020905b815481529060010190602001808311610b5157829003601f168201915b505050505090506000610b8c60408051602081019091526000815290565b9050805160001415610b9f575092915050565b815115610bd1578082604051602001610bb9929190611b36565b60405160208183030381529060405292505050919050565b610bda8461130b565b949350505050565b6040805160808101825260008082526020820181905291810182905260608101919091526000610c1160075490565b6000908152600a602090815260409182902082516080810184528154815260018201546001600160a01b039081169382019390935260029091015491821692810192909252600160a01b900460ff161515606082015292915050565b60606000610c7a60075490565b905060008167ffffffffffffffff811115610ca557634e487b7160e01b600052604160045260246000fd5b604051908082528060200260200182016040528015610cf757816020015b604080516080810182526000808252602080830182905292820181905260608201528252600019909201910181610cc35790505b5090506000805b83811015610dbc576000610d13826001611d56565b6000818152600a602090815260409182902082516080810184528154815260018201546001600160a01b0390811693820193909352600282015492831693810193909352600160a01b90910460ff1615156060830152865192935091869086908110610d8f57634e487b7160e01b600052603260045260246000fd5b6020908102919091010152610da5600185611d56565b935050508080610db490611dd5565b915050610cfe565b50909392505050565b6000610dd060075490565b905090565b610a9582826040518060200160405280600081525061137f565b6000828152600260205260409020546001600160a01b0316610e6a5760405162461bcd60e51b815260206004820152602e60248201527f45524337323155524953746f726167653a2055524920736574206f66206e6f6e60448201526d32bc34b9ba32b73a103a37b5b2b760911b6064820152608401610489565b600082815260066020908152604090912082516106ee928401906117cd565b604080516080810182528381526001600160a01b038381166020808401828152338587018181526001606080890182815260008d8152600a88528b902099518a55945189830180546001600160a01b031916918a169190911790559151600290980180549451989097166001600160a81b031990941693909317600160a01b97151597909702969096179094558551928352908201929092529283015283917f59166e28abbd85e2581b1ea5ef1d1f41a61b92f443890ab6adf28fecd618c966910160405180910390a25050565b6000818152600260205260409020546001600160a01b0316610fb65760405162461bcd60e51b8152602060048201526018602482015277115490cdcc8c4e881a5b9d985b1a59081d1bdad95b88125160421b6044820152606401610489565b50565b600081815260046020526040902080546001600160a01b0319166001600160a01b0384169081179091558190610fee82610995565b6001600160a01b03167f8c5be1e5ebec7d5bd14f71427d1e84f3dd0314c0f7b2291e5b200ac8c7c3b92560405160405180910390a45050565b60008061103383610995565b9050806001600160a01b0316846001600160a01b0316148061107a57506001600160a01b0380821660009081526005602090815260408083209388168352929052205460ff165b80610bda5750836001600160a01b0316611093846105b6565b6001600160a01b031614949350505050565b826001600160a01b03166110b882610995565b6001600160a01b0316146110de5760405162461bcd60e51b815260040161048990611cd3565b6001600160a01b0382166111405760405162461bcd60e51b8152602060048201526024808201527f4552433732313a207472616e7366657220746f20746865207a65726f206164646044820152637265737360e01b6064820152608401610489565b826001600160a01b031661115382610995565b6001600160a01b0316146111795760405162461bcd60e51b815260040161048990611cd3565b600081815260046020908152604080832080546001600160a01b03199081169091556001600160a01b0387811680865260038552838620805460001901905590871680865283862080546001019055868652600290945282852080549092168417909155905184937fddf252ad1be2c89b69c2b068fc378daa952ba7f163c4a11628f55a4df523b3ef91a4505050565b816001600160a01b0316836001600160a01b0316141561126b5760405162461bcd60e51b815260206004820152601960248201527f4552433732313a20617070726f766520746f2063616c6c6572000000000000006044820152606401610489565b6001600160a01b03838116600081815260056020908152604080832094871680845294825291829020805460ff191686151590811790915591519182527f17307eab39ab6107e8899845ad3d59bd9653f200f220920489ca2b5937696c31910160405180910390a3505050565b6112e38484846110a5565b6112ef848484846113b2565b610acb5760405162461bcd60e51b815260040161048990611c81565b606061131682610f57565b600061132d60408051602081019091526000815290565b9050600081511161134d5760405180602001604052806000815250611378565b80611357846114bf565b604051602001611368929190611b36565b6040516020818303038152906040525b9392505050565b611389838361156a565b61139660008484846113b2565b6106ee5760405162461bcd60e51b815260040161048990611c81565b60006001600160a01b0384163b156114b457604051630a85bd0160e11b81526001600160a01b0385169063150b7a02906113f6903390899088908890600401611b65565b602060405180830381600087803b15801561141057600080fd5b505af1925050508015611440575060408051601f3d908101601f1916820190925261143d91810190611ad6565b60015b61149a573d80801561146e576040519150601f19603f3d011682016040523d82523d6000602084013e611473565b606091505b5080516114925760405162461bcd60e51b815260040161048990611c81565b805181602001fd5b6001600160e01b031916630a85bd0160e11b149050610bda565b506001949350505050565b606060006114cc836116f5565b600101905060008167ffffffffffffffff8111156114fa57634e487b7160e01b600052604160045260246000fd5b6040519080825280601f01601f191660200182016040528015611524576020820181803683370190505b5090508181016020015b600019016f181899199a1a9b1b9c1cb0b131b232b360811b600a86061a8153600a850494508461155d57611562565b61152e565b509392505050565b6001600160a01b0382166115c05760405162461bcd60e51b815260206004820181905260248201527f4552433732313a206d696e7420746f20746865207a65726f20616464726573736044820152606401610489565b6000818152600260205260409020546001600160a01b0316156116255760405162461bcd60e51b815260206004820152601c60248201527f4552433732313a20746f6b656e20616c7265616479206d696e746564000000006044820152606401610489565b6000818152600260205260409020546001600160a01b03161561168a5760405162461bcd60e51b815260206004820152601c60248201527f4552433732313a20746f6b656e20616c7265616479206d696e746564000000006044820152606401610489565b6001600160a01b038216600081815260036020908152604080832080546001019055848352600290915280822080546001600160a01b0319168417905551839291907fddf252ad1be2c89b69c2b068fc378daa952ba7f163c4a11628f55a4df523b3ef908290a45050565b60008072184f03e93ff9f4daa797ed6e38ed64bf6a1f0160401b83106117345772184f03e93ff9f4daa797ed6e38ed64bf6a1f0160401b830492506040015b6d04ee2d6d415b85acef81000000008310611760576d04ee2d6d415b85acef8100000000830492506020015b662386f26fc10000831061177e57662386f26fc10000830492506010015b6305f5e1008310611796576305f5e100830492506008015b61271083106117aa57612710830492506004015b606483106117bc576064830492506002015b600a83106104ce5760010192915050565b8280546117d990611d9a565b90600052602060002090601f0160209004810192826117fb5760008555611841565b82601f1061181457805160ff1916838001178555611841565b82800160010185558215611841579182015b82811115611841578251825591602001919060010190611826565b5061184d929150611851565b5090565b5b8082111561184d5760008155600101611852565b600067ffffffffffffffff8084111561188157611881611e06565b604051601f8501601f19908116603f011681019082821181831017156118a9576118a9611e06565b816040528093508581528686860111156118c257600080fd5b858560208301376000602087830101525050509392505050565b80356001600160a01b03811681146118f357600080fd5b919050565b600060208284031215611909578081fd5b611378826118dc565b60008060408385031215611924578081fd5b61192d836118dc565b915061193b602084016118dc565b90509250929050565b600080600060608486031215611958578081fd5b611961846118dc565b925061196f602085016118dc565b9150604084013590509250925092565b60008060008060808587031215611994578081fd5b61199d856118dc565b93506119ab602086016118dc565b925060408501359150606085013567ffffffffffffffff8111156119cd578182fd5b8501601f810187136119dd578182fd5b6119ec87823560208401611866565b91505092959194509250565b60008060408385031215611a0a578182fd5b611a13836118dc565b915060208301358015158114611a27578182fd5b809150509250929050565b60008060408385031215611a44578182fd5b611a4d836118dc565b9150602083013567ffffffffffffffff811115611a68578182fd5b8301601f81018513611a78578182fd5b611a8785823560208401611866565b9150509250929050565b60008060408385031215611aa3578182fd5b611aac836118dc565b946020939093013593505050565b600060208284031215611acb578081fd5b81356104cb81611e1c565b600060208284031215611ae7578081fd5b81516104cb81611e1c565b600060208284031215611b03578081fd5b5035919050565b60008151808452611b22816020860160208601611d6e565b601f01601f19169290920160200192915050565b60008351611b48818460208801611d6e565b835190830190611b5c818360208801611d6e565b01949350505050565b6001600160a01b0385811682528416602082015260408101839052608060608201819052600090611b9890830184611b0a565b9695505050505050565b6020808252825182820181905260009190848201906040850190845b81811015611c1557611c02838551805182526020808201516001600160a01b0390811691840191909152604080830151909116908301526060908101511515910152565b9284019260809290920191600101611bbe565b50909695505050505050565b6020815260006113786020830184611b0a565b6020808252602d908201527f4552433732313a2063616c6c6572206973206e6f7420746f6b656e206f776e6560408201526c1c881bdc88185c1c1c9bdd9959609a1b606082015260800190565b60208082526032908201527f4552433732313a207472616e7366657220746f206e6f6e20455243373231526560408201527131b2b4bb32b91034b6b83632b6b2b73a32b960711b606082015260800190565b60208082526025908201527f4552433732313a207472616e736665722066726f6d20696e636f72726563742060408201526437bbb732b960d91b606082015260800190565b815181526020808301516001600160a01b039081169183019190915260408084015190911690820152606080830151151590820152608081016104ce565b60008219821115611d6957611d69611df0565b500190565b60005b83811015611d89578181015183820152602001611d71565b83811115610acb5750506000910152565b600181811c90821680611dae57607f821691505b60208210811415611dcf57634e487b7160e01b600052602260045260246000fd5b50919050565b6000600019821415611de957611de9611df0565b5060010190565b634e487b7160e01b600052601160045260246000fd5b634e487b7160e01b600052604160045260246000fd5b6001600160e01b031981168114610fb657600080fdfea264697066735822122092a4364a2e58c3f91bc7d347226553c369cb740535c6f23b24dd141a9b72887264736f6c63430008040033",
  "linkReferences": {},
  "deployedLinkReferences": {}
}